:020000040800F2
:10000000B8040020151900086118000863180008DA
:10001000651800086718000869180008000000004B
:100020000000000000000000000000006B18000845
:100030006D180008000000006F1800087118000813
:100040002D19000831190008351900083919000860
:100050003D19000841190008451900084919000810
:100060004D190008511900085519000859190008C0
:100070005D19000861190008651900086919000870
:100080006D190008711900087519000800000000BA
:1000900000000000000000000000000079190008C6
:1000A0007D190008811900088519000889190008C0
:1000B000751800088D190008911900089519000895
:1000C000991900089D190008A1190008A519000830
:1000D000A9190008AD190008B119000800000000B6
:1000E000B5190008B9190008BD1900080000000082
:1000F000000000000000000000000000C11900081E
:1001000000000000C5190008C9190008CD19000831
:1001100000000000000000000000000000000000DF
:10012000D1190008D5190008D9190008DD190008EF
:10013000E1190008000000000000000000000000BD
:10014000000000000000000000000000E5190008A9
:10015000E9190008ED190008F1190008F51900085F
:10016000F9190008FD190008000000000000000057
:10017000000000000000000000000000000000007F
:1001800000000000011A000800000000000000004C
:10019000051A0008091A000870B586B000F004FAC4
:1001A00000F0C4F814220021684600F017FA00207D
:1001B0000590DFF8C843DFF8C803DFF8C8530168CB
:1001C000DFF8C46341F004010160026802F0040238
:1001D0000592002205990592036843F080030360AD
:1001E000016801F08001059105990592036843F0CB
:1001F00001030360016801F0010105910599059271
:100200002021036843F002030360006800F002004D
:100210000590059800F070F901224FF4807100F00C
:100220006BF90022802100F052F901224FF4C061E5
:1002300000F062F90022582100F09DF94FF40050BF
:100240004FF4041100900191002202926946284661
:1002500000F0CEF94FF490710091012200F05EF8A9
:10026000802100F053F8284600F0C2F94FF4C06135
:100270000091112200F052F8582100F047F8304662
:1002800000F0B6F91022002102A800F0A7F9082218
:100290000021684600F0A2F9DFF8F0424FF08040FC
:1002A000606444F61F61A1640020E064022160657F
:1002B000E065216504F1440000F088FA4FF48050B5
:1002C000029002A904F1440000F084FB0021009197
:1002D000019104F14400694600F064FCDFF8B002CB
:1002E00020604FF4E1310C20002260616160A26067
:1002F000E2602261A261E261204600F08FFC00F022
:10030000E9F804F1440000F06EFAFEE700910122E2
:1003100000210291039101926946704700210291E8
:10032000039101926946204600F062B980B592B00F
:100330003022002106A800F051F91422002101A862
:1003400000F04CF9002000909248016841F0805183
:1003500001600021006800F08050009000988E48F5
:1003600000910221026842F44042026001220068CA
:1003700000F440400090009806910992102102225A
:100380000A910C92002110220D910E924FF4A87147
:1003900004220F911092119206A800F0DFFC0221B6
:1003A00002910F204FF4805101900022049103929A
:1003B0000592022101A800F05FFE13B000BD38B520
:1003C000764CA06900286ED000F0FCFE744A754B94
:1003D00000F006FF00F0F6FF228AE389617A054605
:1003E000521C6948A9B991B2994203D300F069F847
:1003F00000F05BF800F05EF803D3E1894A1E0020AC
:10040000E2816082E08910B16069A8424AD301218B
:1004100032E0012912D191B2994203D300F051F890
:1004200000F043F860692282B0EB450F3AD3002117
:10043000E0896182401CE08102211DE002294F4DCC
:100440001CD191B2994203D300F03BF800F02DF893
:1004500000F030F805D3E18900201429BCBF491C05
:10046000E1816082A169606988421BD3002200F0AB
:100470002CF81420E0810321617231BD032911D1D0
:10048000618AA389491C14208AB243439A4208DB3B
:100490006182012200F019F800211420617261616B
:1004A000E081618231BD606131BD6069401C606185
:1004B000002270472282608AA289401C81B2914248
:1004C00070472282082100F068B94FF40071284675
:1004D00000F05FB9314802210D2201704170817036
:1004E000C17002710B210A22417182710521002223
:1004F000C1710281002002E0204600F04AB92DE9D6
:10050000F04104461D4E002200F033F800254CF265
:10051000503700F028F8DFF8708004F00802082156
:10052000404600F036F904F004024FF4807100F008
:1005300022F804F002021021404600F02AF904F0EB
:1005400001024021404600F024F9002500F00BF89C
:10055000012200F00EF83046BDE8F04101224FF4D0
:10056000807100F016B92846451C80B2B842FADB0B
:1005700070474FF40071304600F00BB900000240A4
:100580003038024000080240000402402C000020E5
:10059000004400404038024000700040000000204D
:1005A000465D6BEF5355D53F80B50B48016841F46C
:1005B00000710160026842F480620260016841F4E7
:1005C00080710160032000F01CFF002000F06EFF2E
:1005D00000F08CFF002002BD003C024010B5044634
:1005E00010460A460146204600F0F2FF204610BDA4
:1005F0002DE9F84F0D4600266C496D4A0F2304463D
:1006000001202F68B04000EA0708804540F0BB8019
:100610004FEA460C032707FA0CF76FEA070E6F68DC
:1006200007F00309B9F1010F1CBF07F00307022F00
:1006300012D1A768D5F80C900EEA070709FA0CF951
:1006400049EA0707A760676827EA00006F68C7F3F1
:100650000017B74038436060B0002F7907F00307F8
:10066000032F21D0E768D5F808900EEA070709FAAA
:100670000CF949EA0707E7602F7907F00307022F13
:1006800012D1F70804EB870700F01C09D7F820A067
:1006900003FA09FB2AEA0B0AD5F810B00BFA09F99C
:1006A00049EA0A09C7F8209027680EEA070E2F7951
:1006B00007F0030707FA0CF747EA0E0727606F6891
:1006C00017F4403F5FD0002700974FEA960C176859
:1006D00047F48047176000F00C00176807F4804764
:1006E000009703FA00FE009F324F57F82C7027EA5C
:1006F0000E0E314FBC4208BF002713D02F4FBC4213
:1007000008BF01270ED02E4FBC4208BF022709D0D8
:100710002C4FBC4208BF032704D02B4FBC420CBF58
:100720000427072707FA00F0224F40EA0E0047F897
:100730002C006FEA08000F6800EA070C6F68FF03DF
:1007400048BF48EA0C0CC1F800C04F6800EA070C2B
:100750006F68BF0348BF48EA0C0CC1F804C08F683B
:1007600000EA070C6F68FF0248BF48EA0C0CC1F8AA
:1007700008C0CF6800EA070C6868800248BF48EAF2
:100780000C0CC1F80CC0761C0F2E7FF639AFBDE8FB
:10079000F18F02B9090481617047426901EA0203DD
:1007A000914341EA0341816170470000003C0140F0
:1007B0004438024008380140000002400004024072
:1007C00000080240000C02400010024038B504004E
:1007D00001D1012032BD00F055F818B900F058F9E8
:1007E00000F0A0FE31E090F83D10012901D0012079
:1007F0007047022180F83D100168CA6842F001028A
:10080000CA600168DFF86820914218BFB1F1804FDB
:100810000FD0DFF8602091421CBFDFF85C309942B6
:1008200007D0DFF8582091421CBFDFF854309942BE
:1008300005D1896801F00701062904D001680A681A
:1008400042F001020A600020704702206870211DFA
:10085000206800F021F90120A872A870E8702871C2
:100860006871A871E871287268726870002032BDE2
:10087000000001400004004000080040000C00405F
:100880000040014004F13C056878704710B504460B
:10089000206801698A0715D5C1688A0712D56FF0EB
:1008A0000201016101222277806910F0030F2046C6
:1008B00002D000F0C0FE03E000F0BEFE00F087F8BA
:1008C00000202077206801694A0715D5C1684A07CA
:1008D00012D56FF00401016102222277806910F4C1
:1008E000407F204602D000F0A6FE03E000F0A4FE08
:1008F00000F06DF800202077206801690A0715D5FF
:10090000C1680A0712D56FF008010161042222773D
:10091000C06910F0030F204602D000F08CFE03E007
:1009200000F08AFE00F053F800202077206801696B
:10093000CA0615D5C168CA0612D56FF0100101614B
:1009400008222277C06910F4407F204602D000F0D0
:1009500072FE03E000F070FE00F039F8002020770E
:1009600020680169CA0708D5C168CA0705D56FF0B4
:10097000010101612046FFF722FD206801690A0696
:1009800008D5C1680A0605D56FF0800101612046CF
:1009900000F053FE206801694A0608D5C1684A067E
:1009A00005D56FF040010161204600F047FE206848
:1009B00001698A060AD5C1688A0607D56FF0200149
:1009C00001612046BDE8104000F039BE10BD204650
:1009D00000F036BE70B5064606F13C0500242878C6
:1009E000012801D1022070BD0120287002226A7006
:1009F000DFF82001326893680340936008680200C2
:100A000018BF102830D0202818BF30282CD04028FC
:100A100026D0502819D060281BD0702806D0B0F5F9
:100A2000805F27D0B0F5005F07D022E000F02BF800
:100A30003068816841F0770105E000F024F8306803
:100A4000816841F48041816014E000F018F8502181
:100A50000BE0CA684968306800F07DF8602104E066
:100A600000F00DF8402100E00146306800F085F804
:100A700000E001240120687000F00AF870BDCA6827
:100A80004968306858E0CB684A68896830687CE01B
:100A90000021297020467047F0B51F4B04681F4D98
:100AA0001F4E204F984218BFB0F1804F04D0B8427B
:100AB0001CBFB042A8420CD14A6824F07004144311
:100AC000984218BFB0F1804F0ED0B84218BFB04264
:100AD0000AD0A8421CBF144A904205D0134DA84228
:100AE0001CBF134A904203D1CA6824F440741443D3
:100AF0004A6924F080041443046098428C68C462FC
:100B00000A68826202D109690A4A116001234361BD
:100B1000F0BD00008800FFFF00000140000C004015
:100B20000008004000040040004001400044014033
:100B3000004801403000014010B5036A046A6408AF
:100B40006400046223F00A03846924F0F00444EA98
:100B50000214846123E010B5036A23F010030362DA
:100B60008369046A23F4704343EA023324F0A00447
:100B7000836144EA0114046210BD826822F07002AD
:100B8000114341F007018160704710B5846824F477
:100B90007F442143114341EA0321816010BD194381
:100BA000016210BD70B500F13C031A78012A01D131
:100BB000022070BD01221A7002245C7005686E6804
:100BC000AC680A6826F0700616436E6002680E482C
:100BD000824218BFB2F1804F0BD00D4882421CBF39
:100BE0000C4DAA4205D0094882421CBF0A4DAA42B8
:100BF00004D1486824F080040443946001215970B2
:100C00000020187070BD000000000140000C004082
:100C100000040040000800400040014038B50400D6
:100C200001D1012032BD00F017F808B900F018F822
:100C300000F01BF800F023F8FFE7416100F001F835
:100C400032BD2068C16841F40051C1600020686075
:100C500020216970A970704704F13C0568787047DD
:100C600000212970204600F075BC2420687020689F
:100C7000C16821F40051C160204600F00AB8206824
:100C8000016921F4904101612068416921F02A0144
:100C9000704770B5044622681169E06821F440513C
:100CA00001431161D3682748A168034020690B43C1
:100CB00061690343E0690B430343D3605169A06951
:100CC00021F44071014351611F498A421CBF1F48F2
:100CD000824202D100F05EFA01E000F053FA62684D
:100CE0002568E4691921B4F5004FA1FB00016FF0FC
:100CF000630612D1D30F520000F0A4FC00F028F8D4
:100D0000F60032366420B6FBF0F0420002F4F872CE
:100D100002EB011200F0070010E0930F920000F0C8
:100D200091FC00F015F8360132366420B6FBF0F085
:100D300000F0F00202EB011200F00F008018A86032
:100D400070BD0000F369FFFF001001400014014076
:100D50006421B0FBF1F106FB010670472DE9F84371
:100D6000040016D02078DFF80063C10713D5B068FF
:100D700000F00C00042807D0B06800F00C00082830
:100D80003DD1706841023AD53068810303D560686F
:100D9000002800F063812078B44F810719D5B0682E
:100DA00010F00C0F07D0B06800F00C0008285BD1E1
:100DB0007068410258D43068810703D5E068012883
:100DC00040F04C813168206921F0F80141EAC0010E
:100DD00031602178080779D56069A549002868D075
:100DE00001220A6000F0B2FC0546706F81076DD4E5
:100DF00000F0ACFC401B0228F7D9032031E1606809
:100E0000B0F5803F04D1306840F48030306011E0AC
:100E1000B0F5A02F306806D140F4802030603168F2
:100E200041F4803105E020F480303060316821F4F5
:100E300080213160606858B100F088FC0546306858
:100E40008103A8D400F082FC401B6528F7D3D4E7C7
:100E500000F07CFC0546306881039CD500F076FCF0
:100E6000401B6528F7D3C8E7E068A8B101213960C5
:100E700000F06CFC05463068810705D400F066FC84
:100E8000401B0228F7D9B8E73068216920F0F80044
:100E900040EAC10030609CE7386000F057FC05462E
:100EA0003168880795D500F051FC401B0228F7D91E
:100EB000A3E7086000F04AFC0546706F810705D57E
:100EC00000F044FC401B0228F7D996E72078410740
:100ED0005FD5306C0025C1000AD400950125316C26
:100EE00041F080513164306C00F0805000900098E7
:100EF000DFF88081D8F80000C10513D4D8F80000CD
:100F000040F48070C8F8000000F020FC8146D8F85A
:100F10000000C10506D400F019FCA0EB090002286E
:100F2000F5D96AE7A068012805D00528306F06D1F9
:100F300040F004003067306F40F0010005E04008E9
:100F400040003067306F20F00400306741F289388C
:100F5000A06860B100F0FAFB8146306F810713D4BE
:100F600000F0F4FBA0EB09004045F6D345E700F0A4
:100F7000EDFB8146306F810706D500F0E7FBA0EB63
:100F800009004045F6D338E71DB1306C20F08050A1
:100F90003064A069002863D0B16801F00C01082911
:100FA0003AD002282AD10020386600F0CFFB05464F
:100FB0003068810105D500F0C9FB401B0228F7D934
:100FC0001BE7E069216A626A0843A16A490840EAAE
:100FD0008210491E40EA0140E16A40EA0160706007
:100FE0000120386600F0B2FB04463068810137D436
:100FF00000F0ACFB001B0228F7D9FEE600203866A3
:1010000000F0A4FB04463068810129D500F09EFB66
:10101000001B0228F7D9F0E601281FD07068E269AA
:1010200000F48001914202BF00F03F01226A914228
:1010300001BF47F6C0710140626AB1EB821F0DD15A
:10104000A26A520800F44031521EB1EB024F02BFB7
:1010500000F07060E16AB0EB016F01D0012000E0A8
:101060000020BDE8F28300BF003802400000474284
:10107000800E4742007000402DE9F04104000F4609
:1010800054D0494E306800F00700B84202D200F058
:1010900073F84BD12068454D810712D5400703D521
:1010A000A96841F4E051A9602078010703D5A86838
:1010B00040F46040A860A968A06821F0F0010143F5
:1010C000A9602178C80729D56068012802D129685C
:1010D0008A0305E0022818BF032803D129688A0182
:1010E00003D423E029688A0720D5A968890840EA43
:1010F0008100A86000F02AFB8046A868616800F0C3
:101100000C00B0EB810F09D000F020FBA0EB080031
:1011100041F289318842F0D303202BE0306800F09F
:101120000700874204D200F027F801D0012021E017
:101130002078410705D5AA68E06822F4E05202430E
:10114000AA602178080706D5A968206921F46041C2
:1011500041EAC001A96000F0FFFAAA681449154BE2
:10116000C2F30312895CC84018601348006800F09D
:101170009DF90020BDE8F0813770316801F007016A
:10118000B94270470B480D4A006813680C49C3F315
:10119000822206E00748094A006813680849C3F339
:1011A0004232895CC8407047003C0240003802402F
:1011B000A018000828000020240000200838024061
:1011C0002419000850B1B0FA80F18840C91CC1F55B
:1011D0008461090501EBD021400570470146704745
:1011E00030B540F2FF7C1CEA11541DBF1CEA1355B8
:1011F000644565453FE0641981EA030C6FF35F5372
:101200000CF0004C43F48013C90241F0004141EA64
:10121000505EC5021100A5FB020200284FF000003D
:10122000EEFB01204FF00001E3FB052118BF42F067
:101230000102401800214941E3FB0E01A4F580643E
:101240000D0302D292184041494154F1010470DD6E
:10125000450872F1004250F1000051EB0451A1F534
:10126000801102D441EA0C0130BD40F2FF7E4CEA0D
:101270000E51002030BD0CEA1355644518BF65457A
:1012800081EA030C0CF0004C41D050EA410E1CBF27
:1012900052EA430E02E06146002030BD24422C4455
:1012A0001BD15FEA050EF6D0090302BF01460020FC
:1012B000AEF1140EB1FA81F5AEEB050401FA05FEAC
:1012C0000C35C5F1200100FA05F5C8404EEA000EC4
:1012D0006FF35F5343F480139CE733F00043B3FA9A
:1012E00083F504BFB2FA82FE75440B3D641BB5F171
:1012F000200E2FBF02FA0EF3AB40C5F1200E22FAEA
:101300000EFE38BF43EA0E03AA40641C7CE750EA95
:10131000410E14BF52EA430E6FF000014FF4001566
:1013200015EB430F8EBF194615EB410F9DE7B4D85F
:1013300030BDD4F10104B4F120050FDAC4F1200569
:10134000520828BF42F0010210FA05FE01FA05F525
:101350007244E2BFE0402843E1400FE0352C9ADCC4
:10136000C5F1200452EA400220FA05F218BF42F00B
:10137000010231FA05F0A1400A43002172F1004256
:1013800050F1000051EB0C0130BD30B501688468AC
:101390004218416802EB5103C90703D54C4401E0F0
:1013A000491C08D19A4218BF12F9011B01D10C3017
:1013B00030BD12F8015B002904F8015BF0D4491E2E
:1013C000F7D5EFE7400D40F21E4C40EAC120BCEBE0
:1013D000115C40F0004003D48CF30701C840704713
:1013E0006FEAE170704700000901020002D4294849
:1013F00081547047284B02F00F021A4402F8041C73
:101400007047264B19684FF6FF020002114000F4A6
:10141000E0600843224908431860704770B51F4BCD
:101420001C68C4F302230124C3F10705052D2EBF58
:101430000F2504FA05F56D1E1E1D072E34BF00236F
:10144000DB1E2940994004FA03F3BDE870405B1E9F
:101450001A401143C8E7010007D4012200F01F0120
:10146000104B8A40400943F82020704710B5401EB9
:10147000B0F1807F01D3012010BD0B4C60600F21C3
:101480004FF0FF30FFF7B0FF0021A1600720206080
:10149000002010BD00E400E018ED00E00CED00E0DD
:1014A0000000FA0500E100E010E000E038B50D4D65
:1014B0000D4B2A7804464FF47A711868B1FBF2F2AA
:1014C000B0FBF2F0FFF7D2FF50B9102C08D2002287
:1014D00021464FF0FF30FFF7A1FFAC60002032BD86
:1014E000012032BD1C0000202800002082B0002016
:1014F000009000223248416841F4804141604168D7
:1015000001F48041009100990092036843F08053F8
:101510000360006800F0805000900098072002B03F
:10152000FFF76FBF0068B0F1804F00D0704780B503
:10153000002123480091026842F00102026000226B
:1015400000F037F81C20FFF769FFBDE802401C20BF
:10155000FFF781BF10B586B004461422002101A810
:10156000FFF73CF821681748814220D10022164835
:101570000092016941F400310161016901F4003117
:101580000091009900920C21036843F0010303606D
:10159000022200F00EF80D48019102920021039101
:1015A000032207210591049201A9FFF721F806B053
:1015B00010BD006800F00100009000987047000026
:1015C00040380240004400403038024000000240F1
:1015D00062F30F2262F31F42401810F0030308D099
:1015E000C91A1FD3DB0748BF00F8012D28BF20F818
:1015F000022D130030B414461546103928BF20E9D7
:101600003C00FAD8490728BF20E90C0048BF40F841
:10161000042D890028BF20F8022D48BF00F8012DB5
:1016200030BC7047C91818BF00F8012DCB0728BF80
:1016300000F8012D7047704770477047704770473A
:1016400070470000D3BBD9B1B2F5803F5BD2022A0C
:101650001ED98C46B1FBF2F102FB11C31B0443EA15
:101660001043B3FBF2FC02FB1C3380B240EA03439D
:10167000B3FBF2F002FB103240EA0C40002370474B
:10168000022A05D98446B0FBF2F002FB10C2704773
:101690004AB105D100F0010249085FEA3000704705
:1016A00000220023704700F087B80B0002000021E1
:1016B00000207047F7D3002200237047904271EB5F
:1016C000030CF2D370B5B1FA81F4B3FA83F52C1B95
:1016D000A340C4F1200532FA05F63343A2405FF07F
:1016E0000046E64002E05B085FEA3202841A71EBD2
:1016F000030524BF204629467641F4D302000B009F
:101700003000002170BD70B5B1FA81F4B2FA82F5F3
:10171000C4F120046419B4F12006DAD3B2405FF0BA
:101720000044F440002502E052085FEA3303C61A81
:1017300071EB020E24BF3046714664416D41F3D314
:1017400002000B002000290070BD00000148406825
:10175000704700BF1C00002030B5144C606800F0DA
:101760000C00042802D0082802D01DE0104830BD2B
:10177000226820680023410202F03F0204D5256858
:101780000B49C5F3881003E020680A49C0F38810AC
:10179000A1FB0001FFF756FF2168C1F30141491C7D
:1017A0004900B0FBF1F030BD024830BD04380240C2
:1017B00000127A000024F400704730B4002512E0D3
:1017C00050F8042BD30744BF4A44521E091F042972
:1017D00042F8045BFAD213468C0744BF15809B1C69
:1017E000C90748BF1D7050F8041B0029E8D130BC60
:1017F0007047000010B5074979441831064C7C4405
:10180000163404E00A68081D114488470146A142C5
:10181000F8D110BD2C000000480000004EF68851A1
:10182000CEF20001086840F470000860BFF34F8FEB
:10183000BFF36F8F4FF00070E1EE100A70470000A9
:101840007BFFFFFF8C0000002C0000200000000048
:101850003BFBFFFFB801000030000000000000204B
:10186000FEE7FEE7FEE7FEE7FEE7704770477047DA
:1018700000F006B80148FFF709B80000700000202A
:101880000248416802788A18426070471C000020B4
:101890000248016841F470010160704788ED00E082
:1018A0000000000000000000010203040607080910
:1018B00000F00DF8002801D0FFF79CFFAFF3008087
:1018C0000020AFF30080FEF767FC00F002F8012073
:1018D000704700F001B800000746384600F002F8F3
:1018E000FBE7000080B5AFF30080024A110018202A
:1018F000ABBEFBE7260002000548014603B468467C
:1019000080F30988AFF30080FFF788FFFFF7D0FF6F
:10191000A5EDF5FE014880470148004791180008F1
:10192000F91800080000000001020304FFF7FEBFE1
:10193000FFF7FEBFFFF7FEBFFFF7FEBFFFF7FEBFDB
:10194000FFF7FEBFFFF7FEBFFFF7FEBFFFF7FEBFCB
:10195000FFF7FEBFFFF7FEBFFFF7FEBFFFF7FEBFBB
:10196000FFF7FEBFFFF7FEBFFFF7FEBFFFF7FEBFAB
:10197000FFF7FEBFFFF7FEBFFFF7FEBFFFF7FEBF9B
:10198000FFF7FEBFFFF7FEBFFFF7FEBFFFF7FEBF8B
:10199000FFF7FEBFFFF7FEBFFFF7FEBFFFF7FEBF7B
:1019A000FFF7FEBFFFF7FEBFFFF7FEBFFFF7FEBF6B
:1019B000FFF7FEBFFFF7FEBFFFF7FEBFFFF7FEBF5B
:1019C000FFF7FEBFFFF7FEBFFFF7FEBFFFF7FEBF4B
:1019D000FFF7FEBFFFF7FEBFFFF7FEBFFFF7FEBF3B
:1019E000FFF7FEBFFFF7FEBFFFF7FEBFFFF7FEBF2B
:1019F000FFF7FEBFFFF7FEBFFFF7FEBFFFF7FEBF1B
:101A0000FFF7FEBFFFF7FEBFFFF7FEBFF40002D2F5
:101A10000014F70004280A000001F9000010FC007F
:041A20000224F400A8
:04000005080018F9DE
:00000001FF
