:020000040800F2
:10000000F8040020211A0008591900085B1900089B
:100010005D1900085F190008611900080000000060
:10002000000000000000000000000000631900084C
:100030006519000800000000671900086919000828
:10004000391A00083D1A0008411A0008451A00082C
:10005000491A00084D1A0008511A0008551A0008DC
:10006000591A00085D1A0008611A0008651A00088C
:10007000691A00086D1A0008711A0008751A00083C
:10008000791A00087D1A0008811A00080000000093
:10009000000000000000000000000000851A0008B9
:1000A000891A00088D1A0008911A0008951A00088C
:1000B000991A00086D1900089D1A0008A11A000875
:1000C000A51A0008A91A0008AD1A0008B11A0008FC
:1000D000B51A0008B91A0008BD1A0008000000008F
:1000E000C11A0008C51A0008C91A0008000000005B
:1000F000000000000000000000000000CD1A000811
:1001000000000000D11A0008D51A0008D91A00080A
:1001100000000000000000000000000000000000DF
:10012000DD1A0008E11A0008E51A0008E91A0008BB
:10013000ED1A0008000000000000000000000000B0
:10014000000000000000000000000000F11A00089C
:10015000F51A0008F91A0008FD1A0008011B00082A
:10016000051B0008091B000800000000000000003B
:10017000000000000000000000000000000000007F
:10018000000000000D1B000800000000000000003F
:10019000111B0008151B000838B5040001D101200F
:1001A00032BD00F0C5F818B900F031FA00F08AFB52
:1001B00031E090F83D10012901D001207047022163
:1001C00080F83D100168CA6842F00102CA60016807
:1001D000DFF84821914218BFB1F1804F0FD0DFF80E
:1001E000402191421CBFDFF83C31994207D0DFF833
:1001F000382191421CBFDFF83431994205D189681A
:1002000001F00701062904D001680A6842F00102E2
:100210000A600020704702206870211D206800F0ED
:10022000FAF90120A872A870E87028716871A871A5
:10023000E871287268726870002032BD886800F02A
:100240000700062870470846016841F00101016077
:10025000704738B5040001D1012032BD00F068F8C4
:1002600018B900F0D4F900F0BBFBD4E710B5044690
:1002700004F13E0009B9027807E0042908BF42787A
:1002800003D008290CBF8278C278012A01D001204E
:1002900010BD11B9022202700AE0042902D1022223
:1002A000427005E0082907BF022282700223C37052
:1002B0002068012200F0C7FA00F021F818BFB1F160
:1002C000804F0DD000F017F81CBFDFF85820914286
:1002D00006D000F00CF81CBFDFF85020914202D18C
:1002E000FFF7ACFF01D0FFF7AEFF002010BDDFF835
:1002F000380081427047DFF828008142704721684A
:10030000DFF81800814205D1DFF82C100A6842F4AA
:1003100000420A60216881427047000000000140ED
:100320000004004000080040000C00400040014074
:1003300004F13C05687870474400014010B504465C
:10034000206801698A0715D5C1688A0712D56FF040
:100350000201016101222277806910F0030F20461B
:1003600002D000F03EFB03E000F03CFB00F087F819
:1003700000202077206801694A0715D5C1684A071F
:1003800012D56FF00401016102222277806910F416
:10039000407F204602D000F024FB03E000F022FB67
:1003A00000F06DF800202077206801690A0715D554
:1003B000C1680A0712D56FF0080101610422227793
:1003C000C06910F0030F204602D000F00AFB03E0E2
:1003D00000F008FB00F053F8002020772068016946
:1003E000CA0615D5C168CA0612D56FF010010161A1
:1003F00008222277C06910F4407F204602D000F026
:10040000F0FA03E000F0EEFA00F039F8002020776F
:1004100020680169CA0708D5C168CA0705D56FF009
:1004200001010161204600F035FC206801690A06DF
:1004300008D5C1680A0605D56FF080010161204624
:1004400000F09EFC206801694A0608D5C1684A068A
:1004500005D56FF040010161204600F092FC206854
:1004600001698A060AD5C1688A0607D56FF020019E
:1004700001612046BDE8104000F084BC10BD20465C
:1004800000F081BC002084F83C002846704770B51D
:1004900000F058F801D1022070BD012084F83C0022
:1004A00032B1042A15D0082A25D00C2A34D045E0D0
:1004B000206800F0EDF82168886940F00800886144
:1004C000886920F0040088618A69306902438A6182
:1004D00035E0206800F001F92068816941F400618D
:1004E0008161816921F4806181618169326941EAB8
:1004F0000221816123E0206800F018F92168C869B1
:1005000040F00800C861C86920F00400C861CA69E9
:1005100030690243CA6112E0206800F02FF92068B8
:10052000C16941F40061C161C16921F48061C161A7
:10053000C169326941EA0221C16100E00125FFF78A
:10054000A1FF70BD0446002594F83C0001280E462A
:10055000704770B5064606F13C050024287801284E
:1005600001D1022070BD0120287002226A70DFF8DC
:100570004C0232689368034093600868020018BF19
:10058000102830D0202818BF30282CD0402826D062
:10059000502819D060281BD0702806D0B0F5805F95
:1005A00027D0B0F5005F07D022E000F02BF83068CC
:1005B000816841F0770105E000F024F83068816837
:1005C00041F48041816014E000F018F850210BE004
:1005D000CA684968306800F012F9602104E000F050
:1005E0000DF8402100E00146306800F01AF900E003
:1005F00001240120687000F00AF870BDCA684968DB
:100600003068EDE0CB684A688968306811E1002104
:10061000297020467047F0B5694B0468694D6A4EF1
:100620006A4F984218BFB0F1804F04D0B8421CBF47
:10063000B042A8420CD14A6824F070041443984296
:1006400018BFB0F1804F0ED0B84218BFB0420AD0E8
:10065000A8421CBF5E4A904205D05E4DA8421CBF16
:100660005D4A904203D1CA6824F4407414434A6935
:1006700024F080041443046098428C68C4620A68C1
:10068000826202D10969554A116001234361F0BDBC
:1006900070B5026A520852000262066A44688569AF
:1006A0000B688A6825F073051D4326F00206164381
:1006B000434B98420BD1CA684B6926F0080624F4D4
:1006C000407416438A691C4326F0040614434460B0
:1006D000856149684163066270BD70B5026A384E33
:1006E00022F010020262B042056A436884690A6817
:1006F00024F4E64444EA02248A6825F0200545EA09
:1007000002150DD1CA684E6925F0800545EA02152B
:100710008A6923F44063164325F0400543EA8603C3
:100720004360846149688163056270BD70B5026A87
:1007300022F480720262056A4368C4690A688E689E
:1007400024F0730414431E4A25F40075904245EAD0
:1007500006250DD1CA684E6925F4006545EA0225D3
:100760008A6923F44053164325F4806543EA06134F
:100770004360C4614968C163056270BD70B5026AB7
:100780000F4E22F480520262B042046A4268C3698A
:100790000D6823F4E64343EA05238D6824F40054EE
:1007A00044EA053404D14D6922F4804242EA8512BC
:1007B0004260C36149680164046270BD8800FFFF44
:1007C00000000140000C0040000800400004004010
:1007D0000040014000440140004801403000014019
:1007E00010B5036A046A64086400046223F00A0313
:1007F000846924F0F00444EA021484612EE010B508
:10080000036A23F0100303628369046A23F47043CC
:1008100043EA023324F0A004836144EA0114046231
:1008200010BD826822F07002114341F0070181601F
:10083000704710B5846824F47F442143114341EA92
:100840000321816010BD10B501F01F01036A01246E
:100850008C40A343036202FA01F1036A1943016267
:1008600010BD0EE002684368024408305FEAC37CB2
:1008700044BF4B445B1E52F804CB43F804CB091F22
:10088000F9D150F8041B0029ECD1704782B0002048
:10089000009000224C48416841F480414160416829
:1008A00001F48041009100990092036843F0805365
:1008B0000360006800F0805000900098072002B0AC
:1008C00000F06FBA80B500683F49B0F1804F0BD19E
:1008D000002000900A6842F001020A60086800F0F7
:1008E00001000090009801BD384A904214D10020C8
:1008F00000900A6842F002020A600022086800F0D4
:1009000002000090002100981D2000F057FABDE879
:1009100002401D2000F06FBA01BD10B586B000F096
:100920004DF82168B1F1804F18D1002000900222CB
:100930002748016841F0020101600821006800F0C9
:100940000200009000982348019102920021039137
:1009500004910121059101A900F078FA06B010BDBB
:1009600010B586B000F02AF821681B48814223D1D7
:10097000002217480092016941F4003101610169C8
:1009800001F400310091009900920C21036843F0BA
:10099000010303600222006800F00100009000984B
:1009A0000E48019102920021039103220721059133
:1009B000049201A900F04AFA06B010BD04461422C0
:1009C000002101A800F030BB403802400004004084
:1009D0003038024000040240004400400000024061
:1009E000704770477047000078B58DB000F026FB67
:1009F00000F007F9142200F0F8F800200590DFF865
:100A00005043DFF85003DFF850530168DFF84C63C0
:100A100041F004010160026802F004020592002224
:100A200005990592036843F080030360016801F0B3
:100A30008001059105990592036843F00103036065
:100A4000016801F001010591059905924FF490713B
:100A5000036843F002030360006800F002000590A1
:100A60000598204600F0C3FA00228021284600F0B5
:100A7000BEFA01224FF4C061204600F0B8FA00220D
:100A8000502100F062F94FF400504FF4041100902F
:100A90000191002202926946284600F0D7F94FF4EE
:100AA00090710091012200F0A4F8802100F094F8E8
:100AB000284600F0CBF94FF4C0610091112200F0FC
:100AC00098F8502100F088F8304600F0BFF9102265
:100AD000002109A800F0A8FA00F086F81C220021E5
:100AE00002A800F0A1FA9E4C4FF08040606444F6EA
:100AF0001F61A1640020E06432216065E06521652A
:100B000004F14400FFF748FB4FF48055099509A90B
:100B100004F14400FFF71DFD04F14400FFF799FBC9
:100B200000210091019104F14400694600F0A0FA0F
:100B30006021029105220021039204910691042272
:100B400002A904F14400FFF7A2FC04F14400FFF7FE
:100B5000E4FE844820604FF4E1310C200022606103
:100B60006160A260E2602261A261E261204600F061
:100B7000BBFA1022002102A800F056FA00F034F867
:100B800004F18C067848306040F23F5140F6344022
:100B90000022F0607160B2603261B2613046FFF7EE
:100BA000FBFA029502A93046FFF7D3FC0021009121
:100BB00001913046694600F05BFA00F07EF804F1DE
:100BC0004400FFF7F6FA3046FFF7F3FA042104F188
:100BD0004400FFF74BFBFEE7009101220021029148
:100BE000039101926946704708220021684600F08F
:100BF0001BBA00210291039101926946204600F040
:100C000025B980B592B03022002106A800F00CFA78
:100C10001422002101A800F007FA00200090534898
:100C2000016841F0805101600021006800F08050AF
:100C3000009000984E4800910221026842F4404220
:100C400002600122006800F4404000900098069184
:100C50000992102102220A910C92002110220D917A
:100C60000E924FF4A87104220F911092119206A8CF
:100C700000F0DAFA022102910F204FF48051019026
:100C80000022049103920592022101A800F05AFC6F
:100C900013B000BD38B5374C3749658820880860E7
:100CA0006D1C40F21312A9B2914208BF0025202109
:100CB000274800F0A0F9658031BD304802210D229F
:100CC000017041708170C17002710B210A22417163
:100CD000827105210022C17102810020FFE72DE908
:100CE000F04104461A4E002200F02DF800254CF287
:100CF000503700F022F804F004024FF4807100F045
:100D000024F8DFF8588004F002021021404600F079
:100D10006EF904F001024021404600F068F9002518
:100D200000F00BF8012200F00EF83046BDE8F0416B
:100D300001224FF4807100F05AB92846451C80B258
:100D4000B842FADB70474FF40071304600F04FB9FB
:100D50000000024030380240000802400004024017
:100D600014000020004400400004004040380240CD
:100D700000700040100000202C000040E80000201F
:100D800070477047704770470901020002D4294834
:100D900081547047284B02F00F021A4402F8041CD9
:100DA0007047264B19684FF6FF020002114000F40D
:100DB000E0600843224908431860704770B51F4B34
:100DC0001C68C4F302230124C3F10705052D2EBFBF
:100DD0000F2504FA05F56D1E1E1D072E34BF0023D6
:100DE000DB1E2940994004FA03F3BDE870405B1E06
:100DF0001A401143C8E7010007D4012200F01F0187
:100E0000104B8A40400943F82020704710B5401E1F
:100E1000B0F1807F01D3012010BD0B4C60600F2129
:100E20004FF0FF30FFF7B0FF0021A16007202060E6
:100E3000002010BD00E400E018ED00E00CED00E043
:100E40000000FA0500E100E010E000E02DE9F84FB5
:100E50000D4600266C496D4A0F23044601202F6879
:100E6000B04000EA0708804540F0BB804FEA460CDE
:100E7000032707FA0CF76FEA070E6F6807F00309FC
:100E8000B9F1010F1CBF07F00307022F12D1A768A9
:100E9000D5F80C900EEA070709FA0CF949EA07079A
:100EA000A760676827EA00006F68C7F30017B740BC
:100EB00038436060B0002F7907F00307032F21D07B
:100EC000E768D5F808900EEA070709FA0CF949EA2D
:100ED0000707E7602F7907F00307022F12D1F70801
:100EE00004EB870700F01C09D7F820A003FA09FBE0
:100EF0002AEA0B0AD5F810B00BFA09F949EA0A09EF
:100F0000C7F8209027680EEA070E2F7907F003072D
:100F100007FA0CF747EA0E0727606F6817F4403F9F
:100F20005FD0002700974FEA960C176847F4804778
:100F3000176000F00C00176807F48047009703FA69
:100F400000FE009F324F57F82C7027EA0E0E314FEB
:100F5000BC4208BF002713D02F4FBC4208BF012757
:100F60000ED02E4FBC4208BF022709D02C4FBC42E6
:100F700008BF032704D02B4FBC420CBF0427072710
:100F800007FA00F0224F40EA0E0047F82C006FEA03
:100F900008000F6800EA070C6F68FF0348BF48EAC3
:100FA0000C0CC1F800C04F6800EA070C6F68BF0363
:100FB00048BF48EA0C0CC1F804C08F6800EA070C6F
:100FC0006F68FF0248BF48EA0C0CC1F808C0CF6840
:100FD00000EA070C6868800248BF48EA0C0CC1F8B8
:100FE0000CC0761C0F2E7FF639AFBDE8F18F02B929
:100FF000090481617047426901EA0203914341EAB1
:101000000341816170470000003C014044380240C8
:10101000083801400000024000040240000802407D
:10102000000C02400010024010B5044610460A466B
:101030000146204600F02CFB204610BD80B50B4831
:10104000016841F400710160026842F4806202604C
:10105000016841F4807101600320FFF7A2FE0020C7
:1010600000F04AFBFFF712FC002002BD003C0240EA
:1010700070B500F13C031A78012A01D1022070BD3D
:1010800001221A7002245C7005686E68AC680A68F8
:1010900026F0700616436E6002680E48824218BF42
:1010A000B2F1804F0BD00D4882421CBF0C4DAA42BA
:1010B00005D0094882421CBF0A4DAA4204D14868A3
:1010C00024F08004044394600121597000201870BA
:1010D00070BD000000000140000C00400004004012
:1010E000000800400040014038B5040001D1012053
:1010F00032BD00F017F808B900F018F800F01BF83E
:1011000000F023F8FFE7416100F001F832BD2068EC
:10111000C16841F40051C1600020686020216970FD
:10112000A970704704F13C05687870470021297068
:101130002046FFF715BC242068702068C16821F4A0
:101140000051C160204600F00AB82068016921F40E
:10115000904101612068416921F02A01704770B512
:10116000044622681169E06821F44051014311618D
:10117000D3682748A168034020690B436169034392
:10118000E0690B430343D3605169A06921F44071C6
:10119000014351611F498A421CBF1F48824202D14C
:1011A00000F05EFA01E000F053FA62682568E46935
:1011B0001921B4F5004FA1FB00016FF0630612D1B5
:1011C000D30F520000F0B8FA00F028F8F6003236DB
:1011D0006420B6FBF0F0420002F4F87202EB011258
:1011E00000F0070010E0930F920000F0A5FA00F065
:1011F00015F8360132366420B6FBF0F000F0F0024C
:1012000002EB011200F00F008018A86070BD000012
:10121000F369FFFF00100140001401406421B0FB9E
:10122000F1F106FB010670472DE9F843040016D0E2
:101230002078DFF80063C10713D5B06800F00C0018
:10124000042807D0B06800F00C0008283DD1706871
:1012500041023AD53068810303D56068002800F068
:1012600063812078B44F810719D5B06810F00C0F56
:1012700007D0B06800F00C0008285BD1706841020C
:1012800058D43068810703D5E068012840F04C81CC
:101290003168206921F0F80141EAC001316021780C
:1012A000080779D56069A549002868D001220A603D
:1012B00000F0C6FA0546706F81076DD400F0C0FAE1
:1012C000401B0228F7D9032031E16068B0F5803F68
:1012D00004D1306840F48030306011E0B0F5A02FC8
:1012E000306806D140F480203060316841F48031AC
:1012F00005E020F480303060316821F480213160D5
:10130000606858B100F09CFA054630688103A8D4A3
:1013100000F096FA401B6528F7D3D4E700F090FA66
:101320000546306881039CD500F08AFA401B652889
:10133000F7D3C8E7E068A8B10121396000F080FA6E
:1013400005463068810705D400F07AFA401B022870
:10135000F7D9B8E73068216920F0F80040EAC10009
:1013600030609CE7386000F06BFA0546316888070A
:1013700095D500F065FA401B0228F7D9A3E708606D
:1013800000F05EFA0546706F810705D500F058FA47
:10139000401B0228F7D996E7207841075FD5306CCB
:1013A0000025C1000AD400950125316C41F080511F
:1013B0003164306C00F0805000900098DFF880813C
:1013C000D8F80000C10513D4D8F8000040F48070AC
:1013D000C8F8000000F034FA8146D8F80000C105D2
:1013E00006D400F02DFAA0EB09000228F5D96AE72F
:1013F000A068012805D00528306F06D140F0040010
:101400003067306F40F0010005E040084000306771
:10141000306F20F00400306741F28938A06860B175
:1014200000F00EFA8146306F810713D400F008FAFD
:10143000A0EB09004045F6D345E700F001FA8146EC
:10144000306F810706D500F0FBF9A0EB090040459D
:10145000F6D338E71DB1306C20F080503064A069BD
:10146000002863D0B16801F00C0108293AD00228A5
:101470002AD10020386600F0E3F905463068810182
:1014800005D500F0DDF9401B0228F7D91BE7E0691C
:10149000216A626A0843A16A490840EA8210491E2B
:1014A00040EA0140E16A40EA01607060012038666C
:1014B00000F0C6F904463068810137D400F0C0F965
:1014C000001B0228F7D9FEE60020386600F0B8F9C4
:1014D00004463068810129D500F0B2F9001B0228CA
:1014E000F7D9F0E601281FD07068E26900F48001A6
:1014F000914202BF00F03F01226A914201BF47F6CC
:10150000C0710140626AB1EB821F0DD1A26A52081C
:1015100000F44031521EB1EB024F02BF00F0706088
:10152000E16AB0EB016F01D0012000E00020BDE8CE
:10153000F28300BF0038024000004742800E47425D
:10154000007000402DE9F04104000F4654D0494E90
:10155000306800F00700B84202D200F073F84BD1B7
:101560002068454D810712D5400703D5A96841F48D
:10157000E051A9602078010703D5A86840F46040D5
:10158000A860A968A06821F0F0010143A960217852
:10159000C80729D56068012802D129688A0305E0B7
:1015A000022818BF032803D129688A0103D423E045
:1015B00029688A0720D5A968890840EA8100A860BF
:1015C00000F03EF98046A868616800F00C00B0EBBE
:1015D000810F09D000F034F9A0EB080041F2893105
:1015E0008842F0D303202BE0306800F007008742E8
:1015F00004D200F027F801D0012021E02078410733
:1016000005D5AA68E06822F4E0520243AA60217876
:10161000080706D5A968206921F4604141EAC001A4
:10162000A96000F013F9AA681449154BC2F303121C
:10163000895CC84018601348006800F05DF800201D
:10164000BDE8F0813770316801F00701B942704799
:101650000B480D4A006813680C49C3F3822206E068
:101660000748094A006813680849C3F34232895C95
:10167000C8407047003C02400038024098190008FA
:101680000C0000200800002008380240301A000832
:1016900062F30F2262F31F42401810F0030308D0D8
:1016A000C91A1FD3DB0748BF00F8012D28BF20F857
:1016B000022D130030B414461546103928BF20E916
:1016C0003C00FAD8490728BF20E90C0048BF40F881
:1016D000042D890028BF20F8022D48BF00F8012DF5
:1016E00030BC7047C91818BF00F8012DCB0728BFC0
:1016F00000F8012D7047000038B50D4D0D4B2A78CC
:1017000004464FF47A711868B1FBF2F2B0FBF2F0C4
:10171000FFF77CFB50B9102C08D2002221464FF075
:10172000FF30FFF74BFBAC60002032BD012032BD23
:10173000000000200C000020D3BBD9B1B2F5803FDF
:101740005BD2022A1ED98C46B1FBF2F102FB11C317
:101750001B0443EA1043B3FBF2FC02FB1C3380B2D0
:1017600040EA0343B3FBF2F002FB103240EA0C40C4
:1017700000237047022A05D98446B0FBF2F002FB31
:1017800010C270474AB105D100F0010249085FEA72
:101790003000704700220023704700F087B80B002C
:1017A0000200002100207047F7D300220023704779
:1017B000904271EB030CF2D370B5B1FA81F4B3FA35
:1017C00083F52C1BA340C4F1200532FA05F6334300
:1017D000A2405FF00046E64002E05B085FEA3202AA
:1017E000841A71EB030524BF204629467641F4D3C1
:1017F00002000B003000002170BD70B5B1FA81F419
:10180000B2FA82F5C4F120046419B4F12006DAD3E7
:10181000B2405FF00044F440002502E052085FEA65
:101820003303C61A71EB020E24BF30467146644181
:101830006D41F3D302000B002000290070BD0000B1
:1018400001484068704700BF0000002030B5144CCC
:10185000606800F00C00042802D0082802D01DE0C7
:10186000104830BD226820680023410202F03F0288
:1018700004D525680B49C5F3881003E020680A49A0
:10188000C0F38810A1FB0001FFF756FF2168C1F3E8
:101890000141491C4900B0FBF1F030BD024830BDA8
:1018A0000438024000127A000024F400704730B47B
:1018B000002512E050F8042BD30744BF4A44521EBF
:1018C000091F042942F8045BFAD213468C0744BF6F
:1018D00015809B1CC90748BF1D7050F8041B0029C8
:1018E000E8D130BC7047000010B507497944183181
:1018F000064C7C44163404E00A68081D11448847ED
:101900000146A142F8D110BD2C0000004C0000009F
:101910004EF68851CEF20001086840F4700008606D
:10192000BFF34F8FBFF36F8F4FF00070E1EE100ADF
:10193000704700007BFFFFFFE00000001400002064
:10194000000000001FEFFFFF14000000C0000000B7
:101950000000002000000000FEE7FEE7FEE7FEE7D3
:10196000FEE770477047704700F006B80148FEF781
:10197000E5BC0000A00000200248416802788A18F7
:1019800042607047000000200248016841F4700185
:101990000160704788ED00E00000000000000000DA
:1019A000010203040607080900F00DF8002801D021
:1019B000FFF79AFFAFF300800020AFF30080FFF73E
:1019C00013F800F002F80120704700F001B80000A1
:1019D0000746384600F002F8FBE7000080B5AFF399
:1019E0000080024A11001820ABBEFBE7260002006F
:1019F0000548014603B4684680F30988AFF30080C8
:101A0000FFF786FFFFF7D0FFA5EDF5FE0100000010
:101A100000000000100000000024F400640000003A
:101A2000014880470148004789190008F11900085A
:101A30000000000001020304FFF7FEBFFFF7FEBF36
:101A4000FFF7FEBFFFF7FEBFFFF7FEBFFFF7FEBFCA
:101A5000FFF7FEBFFFF7FEBFFFF7FEBFFFF7FEBFBA
:101A6000FFF7FEBFFFF7FEBFFFF7FEBFFFF7FEBFAA
:101A7000FFF7FEBFFFF7FEBFFFF7FEBFFFF7FEBF9A
:101A8000FFF7FEBFFFF7FEBFFFF7FEBFFFF7FEBF8A
:101A9000FFF7FEBFFFF7FEBFFFF7FEBFFFF7FEBF7A
:101AA000FFF7FEBFFFF7FEBFFFF7FEBFFFF7FEBF6A
:101AB000FFF7FEBFFFF7FEBFFFF7FEBFFFF7FEBF5A
:101AC000FFF7FEBFFFF7FEBFFFF7FEBFFFF7FEBF4A
:101AD000FFF7FEBFFFF7FEBFFFF7FEBFFFF7FEBF3A
:101AE000FFF7FEBFFFF7FEBFFFF7FEBFFFF7FEBF2A
:101AF000FFF7FEBFFFF7FEBFFFF7FEBFFFF7FEBF1A
:101B0000FFF7FEBFFFF7FEBFFFF7FEBFFFF7FEBF09
:081B1000FFF7FEBFFFF7FEBF67
:04000005080019F1E5
:00000001FF
