:020000040800F2
:10000000C00800207D280008C9270008CB27000869
:10001000CD270008CF270008D127000800000000E6
:10002000000000000000000000000000D3270008CE
:10003000D527000800000000D7270008D9270008AE
:10004000A5280008A9280008AD280008B128000844
:10005000B5280008B9280008BD280008C1280008F4
:10006000C5280008C9280008CD280008D1280008A4
:10007000D5280008D9280008DD280008E128000854
:10008000E5280008E9280008ED2800080000000025
:10009000000000000000000000000000F12800083F
:1000A000F5280008F9280008FD28000801290008A3
:1000B00005290008DD270008092900080D29000886
:1000C0001129000815290008192900081D29000810
:1000D000212900082529000829290008000000001E
:1000E0002D290008312900083529000800000000EA
:1000F0000000000000000000000000003929000896
:10010000000000003D290008412900084529000899
:1001100000000000000000000000000000000000DF
:10012000492900084D2900085129000855290008CF
:100130005929000800000000000000000000000035
:100140000000000000000000000000005D29000821
:100150006129000865290008692900086D2900083F
:100160007129000875290008000000000000000047
:10017000000000000000000000000000000000007F
:1001800000000000792900080000000000000000C5
:100190007D2900088129000838B5040001D101201B
:1001A00032BD00F0C5F818B900F031FA00F08AFB52
:1001B00031E090F83D10012901D001207047022163
:1001C00080F83D100168CA6842F00102CA60016807
:1001D000DFF84821914218BFB1F1804F0FD0DFF80E
:1001E000402191421CBFDFF83C31994207D0DFF833
:1001F000382191421CBFDFF83431994205D189681A
:1002000001F00701062904D001680A6842F00102E2
:100210000A600020704702206870211D206800F0ED
:10022000FAF90120A872A870E87028716871A871A5
:10023000E871287268726870002032BD886800F02A
:100240000700062870470846016841F00101016077
:10025000704738B5040001D1012032BD00F068F8C4
:1002600018B900F0D4F900F0BBFBD4E710B5044690
:1002700004F13E0009B9027807E0042908BF42787A
:1002800003D008290CBF8278C278012A01D001204E
:1002900010BD11B9022202700AE0042902D1022223
:1002A000427005E0082907BF022282700223C37052
:1002B0002068012200F0C7FA00F021F818BFB1F160
:1002C000804F0DD000F017F81CBFDFF85820914286
:1002D00006D000F00CF81CBFDFF85020914202D18C
:1002E000FFF7ACFF01D0FFF7AEFF002010BDDFF835
:1002F000380081427047DFF828008142704721684A
:10030000DFF81800814205D1DFF82C100A6842F4AA
:1003100000420A60216881427047000000000140ED
:100320000004004000080040000C00400040014074
:1003300004F13C05687870474400014010B504465C
:10034000206801698A0715D5C1688A0712D56FF040
:100350000201016101222277806910F0030F20461B
:1003600002D000F03EFB03E000F03CFB00F087F819
:1003700000202077206801694A0715D5C1684A071F
:1003800012D56FF00401016102222277806910F416
:10039000407F204602D000F024FB03E000F022FB67
:1003A00000F06DF800202077206801690A0715D554
:1003B000C1680A0712D56FF0080101610422227793
:1003C000C06910F0030F204602D000F00AFB03E0E2
:1003D00000F008FB00F053F8002020772068016946
:1003E000CA0615D5C168CA0612D56FF010010161A1
:1003F00008222277C06910F4407F204602D000F026
:10040000F0FA03E000F0EEFA00F039F8002020776F
:1004100020680169CA0708D5C168CA0705D56FF009
:1004200001010161204600F0E8FC206801690A062C
:1004300008D5C1680A0605D56FF080010161204624
:1004400000F03CFD206801694A0608D5C1684A06EB
:1004500005D56FF040010161204600F030FD2068B5
:1004600001698A060AD5C1688A0607D56FF020019E
:1004700001612046BDE8104000F022BD10BD2046BD
:1004800000F01FBD002084F83C002846704770B57E
:1004900000F058F801D1022070BD012084F83C0022
:1004A00032B1042A15D0082A25D00C2A34D045E0D0
:1004B000206800F0EDF82168886940F00800886144
:1004C000886920F0040088618A69306902438A6182
:1004D00035E0206800F001F92068816941F400618D
:1004E0008161816921F4806181618169326941EAB8
:1004F0000221816123E0206800F018F92168C869B1
:1005000040F00800C861C86920F00400C861CA69E9
:1005100030690243CA6112E0206800F02FF92068B8
:10052000C16941F40061C161C16921F48061C161A7
:10053000C169326941EA0221C16100E00125FFF78A
:10054000A1FF70BD0446002594F83C0001280E462A
:10055000704770B5064606F13C050024287801284E
:1005600001D1022070BD0120287002226A70DFF8DC
:100570004C0232689368034093600868020018BF19
:10058000102830D0202818BF30282CD0402826D062
:10059000502819D060281BD0702806D0B0F5805F95
:1005A00027D0B0F5005F07D022E000F02BF83068CC
:1005B000816841F0770105E000F024F83068816837
:1005C00041F48041816014E000F018F850210BE004
:1005D000CA684968306800F012F9602104E000F050
:1005E0000DF8402100E00146306800F01AF900E003
:1005F00001240120687000F00AF870BDCA684968DB
:100600003068EDE0CB684A688968306811E1002104
:10061000297020467047F0B5694B0468694D6A4EF1
:100620006A4F984218BFB0F1804F04D0B8421CBF47
:10063000B042A8420CD14A6824F070041443984296
:1006400018BFB0F1804F0ED0B84218BFB0420AD0E8
:10065000A8421CBF5E4A904205D05E4DA8421CBF16
:100660005D4A904203D1CA6824F4407414434A6935
:1006700024F080041443046098428C68C4620A68C1
:10068000826202D10969554A116001234361F0BDBC
:1006900070B5026A520852000262066A44688569AF
:1006A0000B688A6825F073051D4326F00206164381
:1006B000434B98420BD1CA684B6926F0080624F4D4
:1006C000407416438A691C4326F0040614434460B0
:1006D000856149684163066270BD70B5026A384E33
:1006E00022F010020262B042056A436884690A6817
:1006F00024F4E64444EA02248A6825F0200545EA09
:1007000002150DD1CA684E6925F0800545EA02152B
:100710008A6923F44063164325F0400543EA8603C3
:100720004360846149688163056270BD70B5026A87
:1007300022F480720262056A4368C4690A688E689E
:1007400024F0730414431E4A25F40075904245EAD0
:1007500006250DD1CA684E6925F4006545EA0225D3
:100760008A6923F44053164325F4806543EA06134F
:100770004360C4614968C163056270BD70B5026AB7
:100780000F4E22F480520262B042046A4268C3698A
:100790000D6823F4E64343EA05238D6824F40054EE
:1007A00044EA053404D14D6922F4804242EA8512BC
:1007B0004260C36149680164046270BD8800FFFF44
:1007C00000000140000C0040000800400004004010
:1007D0000040014000440140004801403000014019
:1007E00010B5036A046A64086400046223F00A0313
:1007F000846924F0F00444EA021484612EE010B508
:10080000036A23F0100303628369046A23F47043CC
:1008100043EA023324F0A004836144EA0114046231
:1008200010BD826822F07002114341F0070181601F
:10083000704710B5846824F47F442143114341EA92
:100840000321816010BD10B501F01F01036A01246E
:100850008C40A343036202FA01F1036A1943016267
:1008600010BD0EE002684368024408305FEAC37CB2
:1008700044BF4B445B1E52F804CB43F804CB091F22
:10088000F9D150F8041B0029ECD1704782B0002048
:10089000009000224C48416841F480414160416829
:1008A00001F48041009100990092036843F0805365
:1008B0000360006800F0805000900098072002B0AC
:1008C00000F00DBB80B500683F49B0F1804F0BD1FF
:1008D000002000900A6842F001020A60086800F0F7
:1008E00001000090009801BD384A904214D10020C8
:1008F00000900A6842F002020A600022086800F0D4
:1009000002000090002100981D2000F0F5FABDE8DB
:1009100002401D2000F00DBB01BD10B586B000F0F7
:100920004DF82168B1F1804F18D1002000900222CB
:100930002748016841F0020101600821006800F0C9
:100940000200009000982348019102920021039137
:1009500004910121059101A900F016FB06B010BD1C
:1009600010B586B000F02AF821681B48814223D1D7
:10097000002217480092016941F4003101610169C8
:1009800001F400310091009900920C21036843F0BA
:10099000010303600222006800F00100009000984B
:1009A0000E48019102920021039103220721059133
:1009B000049201A900F0E8FA06B010BD0446142222
:1009C000002101A800F0CEBB4038024000040040E6
:1009D0003038024000040240004400400000024061
:1009E00070477047704700002DE9F8432DED0A8BE2
:1009F0008EB000F0C1FB00F089F9142200F07AF902
:100A000000200590DFF85044DFF85004DFF8505420
:100A10000168DFF8506441F004010160026802F0EF
:100A200004020592002205990592036843F08003B1
:100A30000360016801F08001059105990592036842
:100A400043F001030360016801F00101059105997C
:100A500005924FF49071036843F00203036000684D
:100A600000F0020005900598204600F05EFB002291
:100A70008021284600F059FB01224FF4C061204636
:100A800000F053FB00225021304600F04EFB4FF4A3
:100A900000504FF404110090019100220292694627
:100AA000284600F071FA4FF4907100F027F92046C3
:100AB00000F06AFA802100F021F9284600F064FA7B
:100AC0004FF4C06100911122002102910391019223
:100AD0006946204600F058FA502100F00FF93046E0
:100AE00000F052FA1022002109A800F03BFB00F0B0
:100AF00000F91C22002102A800F034FBDA4D4FF06F
:100B0000804040F2CF716864A9640020E8643F210E
:100B10006865E865296505F14400FFF73DFB4FF482
:100B20008054099409A905F14400FFF712FD05F16D
:100B30004400FFF78EFB00210091019105F1440074
:100B4000694600F033FB60210291012200210392EB
:100B500004910691042202A905F14400FFF797FCD5
:100B600005F14400FFF7D9FEC048DFF80483286090
:100B70004FF4E1310C20002268616960AA60EA60EC
:100B80002A61AA61EA61284600F04CFB102200218C
:100B900002A800F0E7FA00F0ACF805F18C06B548C1
:100BA000306040F23F5140F634400022F060716006
:100BB000B2603261B2613046FFF7EEFA029402A9E8
:100BC0003046FFF7C6FC002100910191304669468E
:100BD00000F0ECFA9FEDA88B002400279FEDAA9B64
:100BE0009FEDA9BB9FEDA6ABB0EE480AF0EE680AF8
:100BF00000F0D6F8B0EE40CAF0EE60CA2CB99FED16
:100C0000A29BB0EE4CBAF0EE6CBA51EC1C0B53EC5C
:100C10001B2B00F065FC0022002300F0D3FC0BD25C
:100C2000380009D151EC190B00F0E6FC88F80000FF
:100C300085ED36BB012708E0204600F0F9FC41ECC9
:100C4000190BB0EE4CBAF0EE6CBA641C53EC182BD6
:100C500051EC1A0B00F086FB904A954B00F0B2FC69
:100C600041EC180BC0D300274FF06632884B894CFB
:100C7000B946CDE90023CDE9027909EBC70808227E
:100C80006946404600F0E5FC9DED000B00F088F859
:100C90008DED020B082202A9404600F0DAFCD5E9EE
:100CA0003601DDE9022300F0DBFC00227A4B00F084
:100CB000FBFD04EBC7027F1CC2E90001DDE9002354
:100CC00051EC1A0B00F04EFB744A794BCDE9000150
:100CD00000F078FCFFB2D0D305F14400FFF769FAC9
:100CE0003046FFF766FA042105F14400FFF7BEFA2B
:100CF000FEE708220021684600F034BA0091012284
:100D000000210291039101926946704780B592B02B
:100D10003022002106A800F025FA1422002101A8A3
:100D200000F020FA002000905D48016841F08051F9
:100D300001600021006800F08050009000985D483C
:100D400000910221026842F44042026001220068E0
:100D500000F4404000900098069109921021022270
:100D60000A910C92002110220D910E924FF4A8715D
:100D700004220F911092119206A800F06BFE02213E
:100D800002910F204FF480510190002204910392B0
:100D90000592022101A800F0EBFF13B000BD000096
:100DA00038B52DED028BB0EE408AF0EE608A9FEDF3
:100DB0003D0B01F083F800203F4953EC102B00F06D
:100DC0004FFC04460D4653EC182B51EC180B00F069
:100DD0006BFD00224FF0404300F042FC41EC100B51
:100DE00001F0F1F851EC100B22462B4600F05CFDAF
:100DF000BDEC028B41EC100B31BD2DE9F0411C4CD8
:100E0000244962880020551CA6883C2A0ADBAAB225
:100E1000782A05DA277801EBC708D8E9000106E04F
:100E2000B42A08DA01EBC600761CD0E9000100F014
:100E3000E3FB80B204E0A9B2C82904BF0025002664
:100E40001A498860002008602021034800F071F9E9
:100E5000A6806580BDE8F081000002403038024085
:100E60000008024000040240D80300200044004073
:100E7000B80400200004004066666666666607C027
:100E80002C2CB81FF0C0A83F00000000000000009C
:100E9000666607C010000020000041406766666675
:100EA00040380240182D4454FB21194024000040D2
:100EB00066660740007000400000F03F70477047D2
:100EC000704770470901020002D4294881547047D5
:100ED000284B02F00F021A4402F8041C7047264BFC
:100EE00019684FF6FF020002114000F4E060084369
:100EF000224908431860704770B51F4B1C68C4F343
:100F000002230124C3F10705052D2EBF0F2504FA86
:100F100005F56D1E1E1D072E34BF0023DB1E294064
:100F2000994004FA03F3BDE870405B1E1A40114378
:100F3000C8E7010007D4012200F01F01104B8A40CE
:100F4000400943F82020704710B5401EB0F1807F63
:100F500001D3012010BD0B4C60600F214FF0FF301A
:100F6000FFF7B0FF0021A16007202060002010BD26
:100F700000E400E018ED00E00CED00E00000FA05F0
:100F800000E100E010E000E02DE9F84F0D460026FA
:100F90006C496D4A0F23044601202F68B04000EAD7
:100FA0000708804540F0BB804FEA460C032707FA4C
:100FB0000CF76FEA070E6F6807F00309B9F1010F2C
:100FC0001CBF07F00307022F12D1A768D5F80C90B9
:100FD0000EEA070709FA0CF949EA0707A7606768EC
:100FE00027EA00006F68C7F30017B7403843606016
:100FF000B0002F7907F00307032F21D0E768D5F859
:1010000008900EEA070709FA0CF949EA0707E760B2
:101010002F7907F00307022F12D1F70804EB870797
:1010200000F01C09D7F820A003FA09FB2AEA0B0AF2
:10103000D5F810B00BFA09F949EA0A09C7F8209067
:1010400027680EEA070E2F7907F0030707FA0CF757
:1010500047EA0E0727606F6817F4403F5FD000270C
:1010600000974FEA960C176847F48047176000F026
:101070000C00176807F48047009703FA00FE009FF2
:10108000324F57F82C7027EA0E0E314FBC4208BF82
:10109000002713D02F4FBC4208BF01270ED02E4F80
:1010A000BC4208BF022709D02C4FBC4208BF03270F
:1010B00004D02B4FBC420CBF0427072707FA00F0CF
:1010C000224F40EA0E0047F82C006FEA08000F6834
:1010D00000EA070C6F68FF0348BF48EA0C0CC1F830
:1010E00000C04F6800EA070C6F68BF0348BF48EABA
:1010F0000C0CC1F804C08F6800EA070C6F68FF028F
:1011000048BF48EA0C0CC1F808C0CF6800EA070CD9
:101110006868800248BF48EA0C0CC1F80CC0761C15
:101120000F2E7FF639AFBDE8F18F02B90904816156
:101130007047426901EA0203914341EA0341816138
:1011400070470000003C014044380240083801402C
:10115000000002400004024000080240000C02406F
:101160000010024010B5044610460A4601462046CB
:1011700000F030FF204610BD80B50B48016841F4F7
:1011800000710160026842F480620260016841F40B
:10119000807101600320FFF7A2FE002000F04EFFE7
:1011A000FFF774FB002002BD003C024070B500F167
:1011B0003C031A78012A01D1022070BD01221A7065
:1011C00002245C7005686E68AC680A6826F07006D8
:1011D00016436E6002680E48824218BFB2F1804F1B
:1011E0000BD00D4882421CBF0C4DAA4205D00948C5
:1011F00082421CBF0A4DAA4204D1486824F08004F0
:1012000004439460012159700020187070BD0000E3
:1012100000000140000C00400004004000080040B5
:101220000040014038B5040001D1012032BD00F07A
:1012300017F808B900F018F800F01BF800F023F8D0
:10124000FFE7416100F001F832BD2068C16841F458
:101250000051C1600020686020216970A97070474A
:1012600004F13C0568787047002129702046FFF79B
:1012700077BB242068702068C16821F40051C160E8
:10128000204600F00AB82068016921F4904101610C
:101290002068416921F02A01704770B50446226830
:1012A0001169E06821F4405101431161D368274876
:1012B000A168034020690B4361690343E0690B4364
:1012C0000343D3605169A06921F440710143516126
:1012D0001F498A421CBF1F48824202D100F0D6FD3E
:1012E00001E000F0CBFD62682568E4691921B4F5DE
:1012F000004FA1FB00016FF0630612D1D30F520023
:1013000000F0BCFE00F028F8F60032366420B6FB90
:10131000F0F0420002F4F87202EB011200F0070054
:1013200010E0930F920000F0A9FE00F015F83601CE
:1013300032366420B6FBF0F000F0F00202EB01124E
:1013400000F00F008018A86070BD0000F369FFFF77
:1013500000100140001401406421B0FBF1F106FBD4
:101360000106704770B491EA030F4FF0004540F159
:10137000BF806B40841A71EB030604D26E40001BE1
:10138000B141121973414FF4001C1CEB410F34BFE3
:101390007CEB430683E00C0DA4EB1356362E00F3D2
:1013A0007C80012E45EAC32341DC43EA525312BF3D
:1013B000D20292025B08240545EAC12141EA50515C
:1013C000D2EBC020994125D407D1B0FA80F610FAAB
:1013D00006F162D00020203608E0B1FA81F6B14073
:1013E000C6F1200220FA02F21143B0404FEAF47431
:1013F000B4EB465434F001064FEA74040AD8D6F52B
:101400000016760D04F00044F04061FA06F25040F8
:10141000F1404840C00A40EA415021F0004128BF55
:101420005FEA500550F1000044EBD12135E0DB0AC2
:1014300045EAC121C90AB6F120050EDD42EA0242A1
:10144000120CC5F1200603FA06F6EB4042EA060547
:101450006D42984161F100010DE062FA06F5F2403B
:10146000554063FA06FC82EA0C02F3405A406D4292
:10147000904161EB030111F4801F05D1641E6205E8
:1014800002D06D004041494121F48011430875F1BB
:10149000004350F1000041EB045170BC70471CEB5D
:1014A000410F15D223F0004352EA43060BD04FEA16
:1014B0004C0CBCEB410F04D80C0D661E342EB7DD6E
:1014C000EBE7801A994150EA410608BF0021E4E7A2
:1014D00008BF1CEB430F28BF6FF00001DDE70000E1
:1014E00070B491EA030F4FF000457FF543AF6B40B6
:1014F000841A71EB030603D2001BB1411219734128
:101500004FF4001C1CEB410F34BF7CEB430442E062
:101510000C0DA4EB1356352E4FDC45EAC323DB0A32
:1015200045EAC121C912B6F120050DDD63FA05F6C1
:10153000EB4086EA0305124218BF45F00105C018CA
:1015400051F100010CD213E062FA06F5F240554069
:10155000F3415A40B340F3405A408018594107D3F1
:1015600049085FEA30005FEA350528BF45F001050C
:1015700001F58011420875F1004250F1000041EB85
:1015800004514E0016F5001F70BC38BF7047002094
:10159000090D090570471CEB410F10D252EA4306B2
:1015A0000BD0BCEB410F05D80C0DAB43661E342E9F
:1015B000B6DD02E0AB438018594170BC704770BC87
:1015C0007047000041EA030C50EA4C0C52EA0C0C44
:1015D0004FF4001C09D307D01CEB410F9CBF1CEB40
:1015E000430F8B4208BF824270471CEB430FFBD86E
:1015F000994208BF90427047C1F30A5340F21E421D
:10160000D31A0CDDCA0283F3070342EA505242F0B8
:101610000042DA4002EBE17282EAE17070476FEA61
:10162000E17203F2E13008B182F00040704700003F
:1016300010F0004160B148BF4042B0FA80F29040E3
:10164000D21CC2F5846241EA025202EBD02140056D
:10165000704710B5044600F095FD204610BD00000F
:10166000F0B540F2FF7581EA030C0CF0004C15EA6E
:1016700011541DBF15EA1357AC42AF42E5E0BC411F
:10168000C1F31301C3F31303801A994143F4801388
:1016900004D2641E0018494180185941C90241EA28
:1016A0005051B1FBF3F603FB1611A2FB0675D7EB05
:1016B000C020A94102D2761E80185941C90241EAD0
:1016C0005051B1FBF3FE03FB1E11A2FB0E75D7EBCD
:1016D000C020A94103D2AEF1010E80185941890200
:1016E00041EA9051760546EA8E2EB1FBF3F603FBF4
:1016F0001611A2FB0675D7EB8020A94102D2761EF7
:1017000080185941C90241EA50514EEA060EB1FB18
:10171000F3F603FB1611A2FB0675D7EBC020A94117
:1017200002D2761E80185941C90241EA5051B1FBDC
:10173000F3F703FB1711A2FB0735D3EBC020A94138
:1017400067F100070CBF004247F0010766F3D52799
:101750004FEA1E31B80814F5806412DDBD0775F13B
:10176000004250EB0E5051EB045111F5801F5CBF4D
:1017700041EA0C01F0BD4CF07F6141F0E0410020F6
:10178000F0BDBD076D0840EA0E5041F48011D4F160
:101790000104B4F120060ADAC4F120060200E04098
:1017A00001FA06F3E1401843B24015430EE0342C31
:1017B00013DCC6F1200445EA40056D0820FA06F264
:1017C000154321FA06F0A1400D43002175F10042B6
:1017D00050F1000051EB0C01F0BD00205FEA0C015C
:1017E000F0BDCFB992185B41B3FA83F704BFB2FAE8
:1017F00082F6BF190B3FB7F120062FBF02FA06F39E
:10180000BB40C7F1200622FA06F638BF3343BA4080
:101810001CB1E419641E33E77F4231F00041B1FA94
:1018200081F404BFB0FA80F6A4190B3CB4F1200691
:101830002FBF00FA06F1A140C4F1200620FA06F6F7
:1018400038BF3143A0403C1B1AE7AC421ABF05EA3F
:101850001357AF4212E050EA41061CBF52EA43065A
:10186000BFE750EA4107304661461CBF41EA0551D7
:10187000F0BD52EA430C08BFC143F0BD00204FF455
:10188000001616EB410F98BF16EB430F08BF16EB7F
:10189000410F24BFC14305E016EB430F0CBF614667
:1018A0004CEA0551F0BD000030B540F2FF7C1CEA67
:1018B00011541DBF1CEA1355644565453FE064198A
:1018C00081EA030C6FF35F530CF0004C43F4801378
:1018D000C90241F0004141EA505EC5021100A5FB7A
:1018E000020200284FF00000EEFB01204FF0000143
:1018F000E3FB052118BF42F00102401800214941D5
:10190000E3FB0E01A4F580640D0302D2921840415E
:10191000494154F1010470DD450872F1004250F173
:10192000000051EB0451A1F5801102D441EA0C01F1
:1019300030BD40F2FF7E4CEA0E51002030BD0CEA73
:101940001355644518BF654581EA030C0CF0004C43
:1019500041D050EA410E1CBF52EA430E02E06146FC
:10196000002030BD24422C441BD15FEA050EF6D086
:10197000090302BF01460020AEF1140EB1FA81F551
:10198000AEEB050401FA05FE0C35C5F1200100FAA5
:1019900005F5C8404EEA000E6FF35F5343F4801321
:1019A0009CE733F00043B3FA83F504BFB2FA82FE3A
:1019B00075440B3D641BB5F1200E2FBF02FA0EF3E8
:1019C000AB40C5F1200E22FA0EFE38BF43EA0E03EB
:1019D000AA40641C7CE750EA410E14BF52EA430E51
:1019E0006FF000014FF4001515EB430F8EBF194641
:1019F00015EB410F9DE7B4D830BDD4F10104B4F12B
:101A000020050FDAC4F12005520828BF42F0010278
:101A100010FA05FE01FA05F57244E2BFE0402843E2
:101A2000E1400FE0352C9ADCC5F1200452EA400277
:101A300020FA05F218BF42F0010231FA05F0A14088
:101A40000A43002172F1004250F1000051EB0C01F9
:101A500030BD00002DE9F843040016D02078DFF8EF
:101A60000063C10713D5B06800F00C00042807D04C
:101A7000B06800F00C0008283DD1706841023AD5EA
:101A80003068810303D56068002800F06381207806
:101A9000B44F810719D5B06810F00C0F07D0B068AB
:101AA00000F00C0008285BD17068410258D43068FF
:101AB000810703D5E068012840F04C813168206936
:101AC00021F0F80141EAC00131602178080779D599
:101AD0006069A549002868D001220A6000F0A6FBD1
:101AE0000546706F81076DD400F0A0FB401B0228F3
:101AF000F7D9032031E16068B0F5803F04D1306848
:101B000040F48030306011E0B0F5A02F306806D18D
:101B100040F480203060316841F4803105E020F4E9
:101B200080303060316821F480213160606858B1C4
:101B300000F07CFB054630688103A8D400F076FBFA
:101B4000401B6528F7D3D4E700F070FB05463068EA
:101B500081039CD500F06AFB401B6528F7D3C8E7DA
:101B6000E068A8B10121396000F060FB05463068EB
:101B7000810705D400F05AFB401B0228F7D9B8E7CB
:101B80003068216920F0F80040EAC10030609CE72D
:101B9000386000F04BFB05463168880795D500F0AA
:101BA00045FB401B0228F7D9A3E7086000F03EFB85
:101BB0000546706F810705D500F038FB401B0228F1
:101BC000F7D996E7207841075FD5306C0025C10032
:101BD0000AD400950125316C41F080513164306C9C
:101BE00000F0805000900098DFF88081D8F8000065
:101BF000C10513D4D8F8000040F48070C8F8000084
:101C000000F014FB8146D8F80000C10506D400F0AE
:101C10000DFBA0EB09000228F5D96AE7A0680128AE
:101C200005D00528306F06D140F004003067306FD2
:101C300040F0010005E0400840003067306F20F0C0
:101C40000400306741F28938A06860B100F0EEFA14
:101C50008146306F810713D400F0E8FAA0EB090049
:101C60004045F6D345E700F0E1FA8146306F810741
:101C700006D500F0DBFAA0EB09004045F6D338E7C3
:101C80001DB1306C20F080503064A069002863D012
:101C9000B16801F00C0108293AD002282AD10020AD
:101CA000386600F0C3FA05463068810105D500F0BA
:101CB000BDFA401B0228F7D91BE7E069216A626A76
:101CC0000843A16A490840EA8210491E40EA0140DF
:101CD000E16A40EA016070600120386600F0A6FA0F
:101CE00004463068810137D400F0A0FA001B0228B6
:101CF000F7D9FEE60020386600F098FA044630680E
:101D0000810129D500F092FA001B0228F7D9F0E6EC
:101D100001281FD07068E26900F48001914202BF7F
:101D200000F03F01226A914201BF47F6C0710140B5
:101D3000626AB1EB821F0DD1A26A520800F44031F1
:101D4000521EB1EB024F02BF00F07060E16AB0EBCF
:101D5000016F01D0012000E00020BDE8F28300BF48
:101D60000038024000004742800E474200700040A9
:101D70002DE9F04104000F4654D0494E306800F080
:101D80000700B84202D200F073F84BD12068454DED
:101D9000810712D5400703D5A96841F4E051A96035
:101DA0002078010703D5A86840F46040A860A968BE
:101DB000A06821F0F0010143A9602178C80729D566
:101DC0006068012802D129688A0305E0022818BF4B
:101DD000032803D129688A0103D423E029688A07EC
:101DE00020D5A968890840EA8100A86000F01EFAA1
:101DF0008046A868616800F00C00B0EB810F09D044
:101E000000F014FAA0EB080041F289318842F0D3C7
:101E100003202BE0306800F00700874204D200F076
:101E200027F801D0012021E02078410705D5AA68D4
:101E3000E06822F4E0520243AA602178080706D540
:101E4000A968206921F4604141EAC001A96000F05D
:101E5000F3F9AA681449154BC2F30312895CC84010
:101E600018601348006800F0E9F80020BDE8F08130
:101E70003770316801F00701B94270470B480D4ACD
:101E8000006813680C49C3F3822206E00748094A38
:101E9000006813680849C3F34232895CC840704740
:101EA000003C024000380240082800080C000020D6
:101EB00008000020083802409C28000851EC100B54
:101EC00000B500F003F841EC100B00BD40F2FF7CC0
:101ED0000B0D4DD0634566D230B421EA035141F475
:101EE000801103F2FD3C5FEA5C0C01D3001849410C
:101EF000890041EA907180004FF440140023E2020F
:101F0000D50AB1F5100107D46D081DD2091B64195B
:101F100000184941491BF7D56D080AD20919641BFD
:101F200000184941491BEFD56D08F7D301E052086D
:101F300017D0C01861419B1AAC4100184941801A62
:101F4000A941F4D452080AD0C01AA1419B186C418F
:101F500000184941801AA941E9D45208F4D15B1C08
:101F60006C4161084FEA330001EB0C5130BC704703
:101F700050EA0103FBD030B4B1FA81F311B9B0FAE1
:101F800080F41B190B3BB3F120042FBF00FA04F1BE
:101F90009940C3F1200420FA04F438BF214398404B
:101FA000D3F101039DE7634514BF50EA410CDEE71E
:101FB00011F5801FDBD8D943AFF3008070470000D4
:101FC00041EC100B01BD80B551EC100B00F064F931
:101FD000F6E7000062F30F2262F31F42401810F090
:101FE000030308D0C91A1FD3DB0748BF00F8012D2F
:101FF00028BF20F8022D130030B4144615461039BE
:1020000028BF20E93C00FAD8490728BF20E90C0086
:1020100048BF40F8042D890028BF20F8022D48BF92
:1020200000F8012D30BC7047C91818BF00F8012D09
:10203000CB0728BF00F8012D7047000038B50D4DC3
:102040000D4B2A7804464FF47A711868B1FBF2F20E
:10205000B0FBF2F0FEF778FF50B9102C08D2002246
:1020600021464FF0FF30FEF747FFAC60002032BD45
:10207000012032BD000000200C000020D3BBD9B1EC
:10208000B2F5803F5BD2022A1ED98C46B1FBF2F139
:1020900002FB11C31B0443EA1043B3FBF2FC02FB37
:1020A0001C3380B240EA0343B3FBF2F002FB103270
:1020B00040EA0C4000237047022A05D98446B0FB51
:1020C000F2F002FB10C270474AB105D100F00102E4
:1020D00049085FEA3000704700220023704700F093
:1020E000FDB80B000200002100207047F7D300224A
:1020F00000237047904271EB030CF2D370B5B1FA34
:1021000081F4B3FA83F52C1BA340C4F1200532FA05
:1021100005F63343A2405FF00046E64002E05B086C
:102120005FEA3202841A71EB030524BF2046294678
:102130007641F4D302000B003000002170BD70B571
:10214000B1FA81F4B2FA82F5C4F120046419B4F151
:102150002006DAD3B2405FF00044F440002502E0EC
:1021600052085FEA3303C61A71EB020E24BF3046F1
:10217000714664416D41F3D302000B002000290039
:1021800070BD000062B38B0708D0521E11F8013BEE
:1021900000F8013B00F024808B07F6D1830740F064
:1021A000208000BF103A07D330B4B1E83810103A9D
:1021B000A0E83810F9D230BC530724BFB1E80810AA
:1021C000A0E8081044BF51F8043B40F8043BD20794
:1021D00024BF31F8022B20F8022B44BF0B78037088
:1021E0007047121F17D35B0009D151F8043B20F848
:1021F000023B1B0C121F20F8023BF6D20BE051F8F9
:10220000043B00F8013B1B0A20F8023B1B0C121F89
:1022100000F8013BF3D238BF121D521E24BF11F843
:10222000013B00F8013BF8D87047000001484068C6
:10223000704700BF0000002030B5144C606800F00B
:102240000C00042802D0082802D01DE0104830BD40
:10225000226820680023410202F03F0204D525686D
:102260000B49C5F3881003E020680A49C0F38810C1
:10227000A1FB0001FFF702FF2168C1F30141491CE6
:102280004900B0FBF1F030BD024830BD04380240D7
:1022900000127A000024F40041EC100B480080B5D5
:1022A0004015401C0AD1090351EC100B0ED1C80F88
:1022B00018BF9FED080B51EC100B04BD00200090DF
:1022C0000022034B51EC100B00F00AF804BD00BFD4
:1022D0000000F03F00000000000000007047000018
:1022E000F8B52DED0A8B41EC1A0B4800401543EC74
:1022F000182B109C401C53EC1A2B1ED033F00043BB
:1023000008BF002A19D053EC182B1D466800401551
:10231000401C12D022F0000633F0004708BF002E08
:102320000BD051EC1A0B0022894BFFF74BF950D21E
:102330009FED880B51EC100B46E048004015401C07
:1023400005D10A0318BF51EC1A0B40F0FD8053EC85
:10235000182B5A005215521C1D4601D11B0318D1CF
:1023600057EC186B37F0004708BF002E0BD180B92F
:1023700009030ED1AFF30080BDEC0A8B4FF0FF30A4
:102380006FF00041F4BD3AB92B0305D108B9090338
:10239000F0D051EC180BD7E053EC1A2B33F000437C
:1023A00004BF002A224600F0B88060B909030AD1B0
:1023B00053EC1A2B51EC180BBDEC0A8B01B0BDE8A5
:1023C000F040FFF771BA0020BDEC0A8B05F0004128
:1023D000F4BD0122614B00F0EBF80BD8AFF30080A5
:1023E0009FED5F0B51EC100B05F00045BDEC0A8B27
:1023F0002943F4BD53EC1A2B5B485C49FFF754FAB0
:1024000041EC100B53EC102B9FED599B03F0004255
:1024100051EC190B0D46154353EC192B51EC100BD5
:102420002B46FEF79FFFFFF7E7F80546FFF700F999
:1024300041EC1B0B53EC1B2B4FF078404E49FFF740
:1024400033FA53EC1A2BFEF78DFF06460F4653EC7A
:102450001B2B4A484A49FFF727FA32463B46FEF70C
:1024600081FF41EC1A0B21F000410022454BFFF7A0
:10247000A9F851D353EC1A2B51EC1A0BFFF714FAAD
:1024800041EC1B0B53EC1B2B3F484049FFF70CFA68
:102490003F4A404BFEF766FF53EC1B2BFFF704FA55
:1024A00041EC1C0B53EC1B2B3B483C49FFF7FCF960
:1024B0003B4A3C4BFEF756FF53EC1B2BFFF7F4F95E
:1024C00053EC192BFEF74EFF53EC1A2BFFF7ECF9E8
:1024D00041EC190B53EC1C2BFEF744FF9FED32AB84
:1024E00053EC1A2BFEF73EFF06460F4651EC1C0B31
:1024F00053EC192BFEF7F4FF53EC1A2BFEF732FFC7
:1025000002460B4630463946FFF7AAF853EC182B23
:10251000FFF7CAF941EC180B621951EC180B00F0E7
:1025200061F820F0000231F0004308BF002A41ECBE
:10253000100B05D048004015401C03D1090301D100
:10254000AFF3008051EC100BBDEC0A8BF4BD000022
:1025500000C89CC0000000000000000000C89C40B3
:10256000000000000000F07FFE822B654715F73F5A
:10257000000000000000E03F422EE6BFF2E4D5BCC0
:10258000E7E84BBE0000903C112E5781A03F503F22
:102590005843128C8F71BC3F4BE8A541B752013FA5
:1025A0000BBDF3DAE8708C3F000000000000F03F44
:1025B00041EA030C50EA4C0C52EA0C0C4FF4001C9C
:1025C00009D307D01CEB410F9CBF1CEB430F994272
:1025D00008BF904270471CEB410FFBD88B4208BFED
:1025E00082427047124254D440F2FF7C1CEA1153DD
:1025F0000FD0634531D09B1863453CBF01EB0251BE
:10260000704701F0004141EA0C510020AFF3008017
:10261000704750EA410320D001F0004C91EA0C01D0
:102620001CD0B1FA81F30B3B9A420DD9D21A9940D2
:1026300051EA0C01C3F1200C20FA0CFC61449840D3
:10264000531C40F2FF7CD7E7914041EA0C01C2F1F4
:10265000200C20FA0CF3194390407047B0FA80F335
:102660001533202BE0D3202AEED3203A203B9A4288
:1026700009D9D21A00FA03F141EA0C010020531CD7
:1026800040F2FF7CB8E700FA02F141EA0C010020B9
:102690007047524240F2FF7C1CEA11530DD0634553
:1026A000DBD0B2EB030C3CBFA1EB025170470CF145
:1026B000010221EA035141F4801150EA410CCCD0CF
:1026C00001F0004C352A27DC30B481EA0C01B2F16C
:1026D000200309DAC2F12003044601FA03F5D040D1
:1026E0002843D1409C400CE0C3F12002450020FA71
:1026F00003F418BF44F0010421FA03F091400C43A5
:10270000002174F1004550F1000051EB0C0124420E
:1027100030BC7FF47BAF70476146002076E730B471
:10272000002512E050F8042BD30744BF4A44521E40
:10273000091F042942F8045BFAD213468C0744BFF0
:1027400015809B1CC90748BF1D7050F8041B002949
:10275000E8D130BC7047000010B507497944183102
:10276000064C7C44163404E00A68081D114488476E
:102770000146A142F8D110BD2C0000004C00000021
:102780004EF68851CEF20001086840F470000860EF
:10279000BFF34F8FBFF36F8F4FF00070E1EE100A61
:1027A000704700007BFFFFFFB00400001000002016
:1027B00000000000AFE0FFFF10000000D0000000AC
:1027C0000000002000000000FEE7FEE7FEE7FEE755
:1027D000FEE770477047704700F006B80148FDF704
:1027E000ADBD0000640400200248416802788A18E8
:1027F00042607047000000200248016841F4700107
:102800000160704788ED00E000000000000000005B
:10281000010203040607080900F00DF8002801D0A2
:10282000FFF79AFFAFF300800020AFF30080FEF7C0
:10283000DBF800F002F80120704700F001B800005A
:102840000746384600F002F8FBE7000080B5AFF31A
:102850000080024A11001820ABBEFBE726000200F0
:102860000548014603B4684680F30988AFF3008049
:10287000FFF786FFFFF7D0FFA5EDF5FE0148804783
:1028800001480047F92700086128000801000000FE
:1028900000000000100000000024F4000000000010
:1028A00001020304FFF7FEBFFFF7FEBFFFF7FEBF05
:1028B000FFF7FEBFFFF7FEBFFFF7FEBFFFF7FEBF4C
:1028C000FFF7FEBFFFF7FEBFFFF7FEBFFFF7FEBF3C
:1028D000FFF7FEBFFFF7FEBFFFF7FEBFFFF7FEBF2C
:1028E000FFF7FEBFFFF7FEBFFFF7FEBFFFF7FEBF1C
:1028F000FFF7FEBFFFF7FEBFFFF7FEBFFFF7FEBF0C
:10290000FFF7FEBFFFF7FEBFFFF7FEBFFFF7FEBFFB
:10291000FFF7FEBFFFF7FEBFFFF7FEBFFFF7FEBFEB
:10292000FFF7FEBFFFF7FEBFFFF7FEBFFFF7FEBFDB
:10293000FFF7FEBFFFF7FEBFFFF7FEBFFFF7FEBFCB
:10294000FFF7FEBFFFF7FEBFFFF7FEBFFFF7FEBFBB
:10295000FFF7FEBFFFF7FEBFFFF7FEBFFFF7FEBFAB
:10296000FFF7FEBFFFF7FEBFFFF7FEBFFFF7FEBF9B
:10297000FFF7FEBFFFF7FEBFFFF7FEBFFFF7FEBF8B
:04298000FFF7FEBFA0
:040000050800286166
:00000001FF
